:020000040800F2
:10000000F0D2002081020008D9230008D123000883
:10001000D52300081F2200084B2B00080000000019
:10002000000000000000000000000000792500082A
:100030002322000800000000612400088D2600082B
:100040009B0200089B0200089B0200089B0200081C
:100050009B0200089B0200089B0200089B0200080C
:100060009B0200089B0200089B0200089B020008FC
:100070009B0200089B0200089B0200089B020008EC
:100080009B0200089B0200089B0200089B020008DC
:100090009B0200089B0200089B0200089B020008CC
:1000A0009B0200089B0200089B0200089B020008BC
:1000B0009B020008F12600089B0200089B02000832
:1000C0009B0200089B0200089B0200089B0200089C
:1000D0009B02000899280008212900089B020008BB
:1000E0009B0200089B0200089B0200089B0200087C
:1000F0009B0200089B0200089B0200089B0200086C
:100100009B0200089B0200089B0200089B0200085B
:100110009B0200089B020008852700089B0200083C
:100120009B0200089B0200089B0200089B0200083B
:1001300000F002F800F095F80AA090E8000C824464
:100140008344AAF10107DA4501D100F08AF8AFF241
:10015000090EBAE80F0013F0010F18BFFB1A43F0A5
:100160000103184790760000B0760000103A24BFD3
:1001700078C878C1FAD8520724BF30C830C144BF0C
:1001800004680C607047000000230024002500264E
:10019000103A28BF78C1FBD8520728BF30C148BFEA
:1001A0000B6070476E2900F0F285702900F0958190
:1001B000662906F01986652906F01686672906F075
:1001C0001386612906F0128603681B0A28BF41F0D6
:1001D0008001692900F00681642900F003817529F6
:1001E00000F000816F2901F0F880782900F061812A
:1001F000E92901F09380E42901F09080F52901F0CC
:100200008D80EF2901F0F580F82900F06081036806
:10021000DB0928BF41F08001632901F002807329C6
:1002200001F00780E32901F0E381F32901F0E8817F
:10023000002070471FB500F019FD040000200021C8
:1002400005F096FF401C60600020002105F0A6FF2D
:10025000E0600020002105F075FF20611FBD10B592
:1002600010BD01F067FA1146FFF7E4FF04F0DAF978
:1002700001F004FC03B4FFF7F2FF03BC02F0F9FC49
:100280000948804709480047FEE7FEE7FEE7FEE72A
:10029000FEE7FEE7FEE7FEE7FEE7FEE70448054966
:1002A000054A064B704700009126000831010008FE
:1002B000F0CC0020F0D20020F0CE0020F0CE0020C4
:1002C000704710B5044600F0C9FC0068005DC00628
:1002D00002D504F1200010BD204610BD1CB50C460F
:1002E000064B7B4469460090204600F078FF0446A8
:1002F0000020694600F086FF20461CBD1F0F00004D
:100300000FB4044910B503AA029800F097FF10BC7F
:100310005DF814FBB40000200FB41CB5084B06AA0E
:100320007B4469460090059800F059FF0446002080
:10033000694600F067FF20461CBC5DF814FB000016
:10034000E10E000070B5044685690068C10601D55C
:10035000302600E02026C00707D070BDD4E9012177
:1003600030469047206A401C20626D1EF6D570BD55
:1003700070B5044685690078C00707D170BDD4E91F
:10038000012120209047206A401C20626D1EF6D576
:1003900070BD70B50C460546012A05D02878800648
:1003A00000D5EA69002302E0012305E05B1C9342CB
:1003B00002D2E05C0028F9D1A869E618C01AA86149
:1003C000286A184428622846FFF7BCFF04E0D5E9F4
:1003D000012114F8010B9047B442F8D32846FFF7E7
:1003E000C7FF70BD2DE9F04106460024106875294D
:1003F000314616A510D000F05FFC002802DA40421A
:1004000013A507E031688A0701D512A502E0490764
:1004100004D511A5012401E000F057FC00210A22B7
:1004200006F1240709E0B0FBF2FCB0FBF2F302FB9B
:100430001C00303078541846491C0028F3D123465C
:100440002A463046BDE8F04100F048BC00000000FC
:100450002D0000002B00000020000000F0B40D462D
:100460000188090502D5214C7C4402E01F4C7C44E4
:100470000E34002100F1240608E002F00F071209F3
:10048000E75D42EA03721B097754491C52EA0307ED
:10049000F3D102780023120704D5702D06D009B1DC
:1004A000022311342246F0BC00F018BC01231034A2
:1004B000F8E770B504460D462146106800F005FCCB
:1004C000024629462046BDE870400023C6E7D21DFB
:1004D00022F00703D3E90023C0E70368126843F062
:1004E000200303600823C3610023B7E74F710000B6
:1004F0002DE9F05F894604464FF0000ADFF874B139
:10050000FB44C0F820A02046E1688847002874D04A
:10051000252806D0D4E901219047206A401C20629A
:10052000F1E700265F462046E16888472028054617
:1005300007DB312D05D2781910F8200C08B10643DD
:10054000F1E7B00701D526F00406C4F81CA0002787
:10055000C4F818A02A2D09D0284602F083FB38B32E
:1005600004EB8708303DC8F8185019E059F8041B0F
:10057000204604EB87029161E1688847012F054618
:1005800018D1E069002820DA26F020061DE0D8F80E
:10059000180000EB800005EB40003038C8F8180068
:1005A0002046E1688847054602F05CFB0028EED152
:1005B000012F0AD02E2D08D12046E16888477F1CE4
:1005C0000546022F46F02006C4DBA069002803DAA6
:1005D000404246F00106A061F00701D026F0100667
:1005E0006C2D0BD0682D09D04C2D39D06A2D35D00B
:1005F000742D35D07A2D33D016E038E0E1682F46DF
:1006000020468847B842054609D16C2F26D04FF4C2
:100610008060E168064320468847054604E06C2F69
:100620001AD04FF4807006430DB3A5F1410019288C
:1006300002D8203546F400664A4629462046266000
:100640004E46FFF7AFFD80B101280BD0F61D26F016
:10065000070000F1080956E74020E4E78020D8E7CA
:100660000020D6E706F104094DE7284652E7206A44
:10067000BDE8F09FDF70000030B505460B462A4606
:1006800013F8014B12F8010B08B1A042F8D01CB1CD
:10069000002802D06D1CF1E7284630BD10B5431C80
:1006A00002E010F8011B71B18107FAD14FF001325D
:1006B00002C88C1A8C4314EAC211F9D0C01A0A0677
:1006C00003D0C01E10BDC01A10BD0A0401D0801E88
:1006D00010BD0902FCD0401E10BD40EA010370B5F8
:1006E0009B072ED14FF00136042A2AD308C810C91F
:1006F0009D1B9D43121F15EAC61517D0D8B2E1B253
:10070000401A50EA056110D198B2A1B2401A50EADD
:1007100005410AD123F07F4024F07F41401A50EA7E
:10072000052102D1180EA0EB146070BDA342DBD0EE
:1007300018BA21BA884201D9012070BD4FF0FF30AC
:1007400070BD0AB9002070BD10F8013B11F8014BD3
:1007500063B1A3420AD1521E08D010F8013B11F830
:10076000014B1BB1A34201D1521EEDD1181B70BD2C
:1007700010B5203AC0F00B80B1E81850203AA0E83C
:100780001850B1E81850A0E81850BFF4F5AF5FEA70
:10079000027C24BFB1E81850A0E8185044BF18C923
:1007A00018C0BDE810405FEA827C24BF51F8043BCA
:1007B00040F8043B08BF7047D20728BF31F8023B1E
:1007C00048BF11F8012B28BF20F8023B48BF00F8B2
:1007D000012B70474FF000020429C0F0128010F086
:1007E000030C00F01B80CCF1040CBCF1020F18BF0D
:1007F00000F8012BA8BF20F8022BA1EB0C0100F0A0
:100800000DB85FEAC17C24BF00F8012B00F8012B72
:1008100048BF00F8012B70474FF0000200B51346A7
:1008200094469646203922BFA0E80C50A0E80C5010
:10083000B1F12001BFF4F7AF090728BFA0E80C50C1
:1008400048BF0CC05DF804EB890028BF40F8042BBA
:1008500008BF704748BF20F8022B11F0804F18BF27
:1008600000F8012B704700004FF0013C50F8042BBA
:1008700051F8043B9A4221D1A2EB0C03934313EAB3
:10088000CC1317D150F8042B51F8043B9A4215D1E0
:10089000A2EB0C03934313EACC130BD150F8042BB7
:1008A00051F8043B9A4209D1A2EB0C03934313EA9B
:1008B000CC13DBD04FF00000704700BFD01A01BA54
:1008C000B1FA81F101F0180122FA01F0CB40C1F137
:1008D0002001DBB2C0B2C01A2CFA01F3D11A914345
:1008E00011EAC311E6D17047014900F08DBD000047
:1008F00060CC002070B5054601B90721541A241DAB
:10090000B4F5B67F09DD286800F05DF9A04204DC8B
:100910002868401C2860012070BD002C05DA28687A
:10092000401E286000F04FF90444072094FBF0F0CB
:10093000401C70BD2DE9F04F1F4615468B46824680
:10094000002689B000F092F9D0F810800024BBF1A5
:10095000000F70D015F8010B10B125280DD10FE054
:1009600024B1641E06A850F82450F3E70021304655
:100970000AF8061009B0BDE8F08F0AF80600C7E0D3
:10098000E94615F8010B592870D023DC49286ED0B0
:1009900014DC44286DD008DC2528EED041283ED058
:1009A000422849D043282CD156E04528E9D0462892
:1009B00069D0472876D0482823D17AE04D380C28D2
:1009C0001FD2DFE800F0881E061E1E9BA0A9B3B54B
:1009D000C1CFD6E75A38212813D2DFE800F0111230
:1009E00012121212121A2637455012592612741278
:1009F00012797E128012891296A212B3BDCB110019
:100A0000A8E725200AF80600761C5E4513D26D1E65
:100A1000A0E7D8F80010BA69D8F8240011E0D8F897
:100A20000410BA69D8F828000BE0D8F808103A6921
:100A3000D8F82C0005E0B2E0D8F80C103A69D8F8E4
:100A4000300002FB001101EB0809AAE006A840F8FB
:100A50002450D8F818108AE07969642091FBF0F2EC
:100A60001332484668A192E0FA6889E08AE022E001
:100A7000FFE706A840F8245065A5641C6AE7FA68F9
:100A800066A1484683E006A840F8245064A5F4E730
:100A9000384600F0ADF8642190FBF1F201FB120240
:100AA00058E0FFE7384600F0A3F802465FA1684629
:100AB0006DE0BA6864E0B8680C210B3090FBF1F28D
:100AC00001FB120205E0FA6959A14846521C5EE09A
:100AD0003A694DA1F9E77A6852E00A2116E0B86850
:100AE0000C2802DAD8F81010ADE7D8F81410AAE7ED
:100AF00006A840F82450D8F8341038E006A840F88A
:100B000024504DA5B9E73A683AE009210AF80610E1
:100B1000761C5E45B2D342E006A840F8245048A5B2
:100B2000ABE7BA6902B9072248A1AAE700210CE0A5
:100B3000786900F26C700890D7E9061208A8FFF7F0
:100B4000D9FE06E0BA69EFE70121D7E9062000F0F7
:100B50002EF802462CA1AAE706A840F82450D8F89F
:100B60001C1004E006A840F82450D8F8201001EB2F
:100B7000080582E77969642091FBF0F200FB12120C
:100B800021A17EE77A69484628A102F26C7200F042
:100B90007DF806E00AF80600761C5E4501D30020C9
:100BA000E8E619F8010B00283FF4DFAEF2E7511A2E
:100BB00000D5C91D401A01D500207047072190FBC0
:100BC000F1F0401C704781070CD1642190FBF1F2D9
:100BD00001FB120151B94FF4C87190FBF1F201FB16
:100BE000120018B1002000F26D1070470120FAE7E2
:100BF00008B5416901F26C710091D0E906126846AE
:100C0000FFF778FE009808BD252E32640000000032
:100C1000256D2F25642F2579000000002532640002
:100C200025592D256D2D2564000000002564000048
:100C3000252E33640000000025483A254D000000B1
:100C400025483A254D3A255300000000252E3164F1
:100C500000000000704770477047704710B500F003
:100C600005F8001D10BD00BF095500000048704781
:100C7000ACCC002010B500F027FC006810BD10B50A
:100C8000044600F021FC046010BD00000FB41CB548
:100C9000084B06AA7B4469460090059800F09FFA2D
:100CA00004460020694600F0ADFA20461CBC5DF801
:100CB00014FB00006D05000009684A0501D540B22B
:100CC0007047C905FCD500B2704709684A0501D5CF
:100CD000C0B27047C905FCD580B270472DE9F04716
:100CE0000D4699469246044600F12408016888069C
:100CF00004D5E06921F01001216000E00120A84244
:100D000001DD471B00E00027A1697A1902EB090009
:100D1000081AA0612078C00602D42046FFF712FB13
:100D2000002608E0D4E901211AF806009047206A5D
:100D3000401C761C20624E45F4DB2078C0060AD5A4
:100D40002046FFF7FFFA06E0D4E901213020904762
:100D5000206A401C2062381EA7F10107F4DC07E07E
:100D6000D4E9012118F805009047206A401C206250
:100D7000281EA5F10105F3DC2046FFF7F9FA2078DB
:100D8000000602D50220BDE8F0870120FBE71168CC
:100D90000268006A530501D508700AE0D30501D541
:100DA000088006E0130603D5C217C1E9000200E07F
:100DB00008600120704770472DE9FF4F0C461E4622
:100DC0004FF0FF378BB0D2E90001DDF860800A9068
:100DD0008A46C1F30A5505B93D46002108464FF041
:100DE0000000BAF1000F00F4400005DA00EB8000CB
:100DF0004FF4400101EA50004FEA9059B9F1010F58
:100E000000DDB9460A9850EA4A000ED044F6105068
:100E1000A5F2FF3545432F14B8F1000F1ED07542DF
:100E2000291E1EDDC9F100021CE0B8F1010F4FF0D0
:100E3000000001D0302103E0F24305E02154401CC2
:100E4000B042FBDB30460022002121540B99C1F84F
:100E50000880C1E900200FB0BDE8F08FBD1B6D1CFC
:100E6000DEE74A4600DA694206A800F0CDFB06AB91
:100E700093E8070003AB83E8070050460A9900F0A7
:100E800006FE8DE80700A0F500501F38009003987B
:100E9000002D0ADD42F21F014A460844002303A93F
:100EA0000390684601F06FF809E0A0F500504A464B
:100EB0001F38002303A90390684601F079F88DE8F4
:100EC00007000004000C03D04FF0FF30410800E0A1
:100ED0001046B8F1000F03D00022009215461EE024
:100EE000751E05D400F0F4FA303262556D1EF9D546
:100EF000B3460122084302D000227F1C04E0207880
:100F0000302801D100227F1E002A099784D01DE0DD
:100F1000112D07DA00F0DCFA303262556D1C50EA10
:100F20000102F5D1084302D00098C8B10EE00021BB
:100F3000681E05E0235C625C63542254401E491C19
:100F40008142F7DBAB46A81B401E0990002004F845
:100F50000B000B98099AC0F80880C0E9002B7AE7CB
:100F600011264FF0000857E72DE9F04F8846044658
:100F7000D21D22F0070191B0D1E90001CDE90A01AB
:100F800001F0E5FD02460B98C00F01D02D2007E0CF
:100F90002068810701D52B2002E0202101EAC00052
:100FA000032A099001D0072A05DB03464146204663
:100FB00000F0D4FA0BE12078800601D5E06900E06A
:100FC0000620B8F1650F814606D0B8F1660F18D03B
:100FD000B8F1670F70D131E00020B9F1110F009026
:100FE00001DB112301E009F101030AAA01A90CA800
:100FF000FFF7E2FEDDE90C70002609F101058346EA
:1010000047E001204B4600904FF000470AAA01A993
:101010000CA8FFF7D1FEDDE90DB00C995D46002666
:1010200010B909F101000D18B9EB050003D4C0F1A6
:10103000FF3609F10105A5EB09002BE0B9F1010F1D
:1010400001DA4FF001090020B9F1110F0090484674
:1010500001DD112300E003460AAA01A90CA8FFF74D
:10106000ABFEDDE90C704D46002683462078000774
:101070000AD4AB4500DA5D4601A8012D04DD411913
:1010800011F8011C302907D04F4502DA17F1040F7F
:1010900004DA012082460FE06D1EEEE7002F02DC2D
:1010A000ED1B3E4403E0781CA84200DD7D1CB81B0C
:1010B00000F1010A4FF000472078000703D4AA4549
:1010C00001DB4FF0FF3A0021B7F1004F0DF143086B
:1010D0008DF8431024D002202B23002F01DA7F4209
:1010E0002D230A21021EA0F1010000DC5FB197FB55
:1010F000F1FC97FBF1F201FB1C7C17460CF1300C64
:1011000008F801CDEEE7A8F1010003702188090578
:1011100001D5452100E06521A0F1010800F8011C7E
:1011200009980FA9A1EB0807FF1D00B10120411983
:1011300001EBEA70A1693844081A401EA0612078CA
:10114000C00602D42046FFF7FDF8099828B1D4E97B
:1011500001219047206A401C20622078C00622D5D9
:101160002046FFF7EFF81EE0002E04DBB34502DD5A
:1011700001A8805D00E03020D4E901219047206A79
:10118000401C2062761CAAF101005FEA000A0AD125
:10119000FFF76CFDC0680168405CD4E9012190470D
:1011A000206A401C2062281EA5F10105DCDC07E056
:1011B000D4E9012118F8010B9047206A401C2062F5
:1011C000381EA7F10107F3DC2046FFF7D1F8032012
:1011D00011B041E601694A1C02610878704700B508
:1011E0008FB0CDE901310021059105497944CDE960
:1011F000031011466846FFF77BF90FB000BD0000F1
:10120000E5FFFFFF0A6802F8010B0A60704710B59E
:10121000436913B1AFF3008001E0FFF7BAF8012092
:1012200010BD127800F124010A7000224A700122D8
:10123000EDE711684FF0FF32E9E70000074B70B5AA
:101240000D467B44FFF7CBFF0446284600F04EFADC
:1012500010B14FF0FF3070BD204670BD2F20000050
:101260002DE9FF5F15468A460446DFF8AC80F84456
:101270000027D8E900103E46CDE9001010E03AF80A
:1012800016106A4602A800F035FA411C07D02178F2
:10129000890603D5E269391891420DD80744761CB6
:1012A0002078800602D5E069B84205DDAE42E6DB73
:1012B0003AF816000028E2D1A069C01BA0612046C0
:1012C000FFF740F8D8E90010CDE90010002017E042
:1012D0003AF818106A4602A800F00CFAB0F1FF3F85
:1012E00081460BD000250DF1080B05E0D4E9012162
:1012F0001BF8050090476D1C4D45F7D308F1010020
:10130000B0428046E4DB206A384420622046FFF782
:101310002FF8BDE8FF9F00000E6400002DE9F041AA
:101320008046D21D22F007020025D2E90002F529ED
:1013300015A614D0011E72F1000106DA0023D0EBCD
:10134000030063EB020211A608E0D8F800108B0737
:1013500001D50FA602E0490701D50EA601251146C9
:10136000002408F1240704E000F0B2F830323A55C6
:10137000641C50EA0102F7D12B4632462146404612
:10138000BDE8F041FFF7AABC000000002D000000FE
:101390002B0000002000000030B4002100F12404E4
:1013A00008E002F00705D208303542EA4372DB0854
:1013B0006554491C52EA0305F3D10468002310A2C6
:1013C000250707D5A40600D421B1C46901230DA2C5
:1013D000641EC46130BCFFF781BC10B504462146D1
:1013E0001068FFF772FC02462046BDE8104000235B
:1013F000D2E7D21D22F00701D1E90023CCE700009B
:10140000000000003000000070B50C4601680020AC
:101410004A1C3ED03C22B1FBF2F302FB1313B1FB9A
:10142000F2F12360B1FBF2F302FB1313B1FBF2F113
:1014300018226360B1FBF2F302FB1313B1FBF2F16C
:1014400046F2E0320A440721A360B2FBF1F301FB4C
:10145000132140F2B553B2FBF3F5A161B2FBF3F1F6
:1014600003FB15228900B2F5B77F08D39B10521EEB
:10147000B2FBF3F52944B2FBF3F503FB15220F4B46
:10148000E261616189077B440CD03B2A0AD3521C7C
:1014900008E02C212046FFF7BFF90120E0600AE0B8
:1014A000521A401C195C9142FAD9521CC4E903201B
:1014B0004FF0FF302062204670BD0000D262000075
:1014C000004870478CCC0020004870478CCC00202E
:1014D00030B5B0F10A024FEA900E71F100034EEA06
:1014E000817EB0EB0E0061EB91014FEA101E4EEAD7
:1014F000017E10EB0E0041EB11114FEA102E4EEA67
:10150000016E10EB0E0041EB11214FEA104E4EEA36
:10151000014E10EB0E0041EB1141401841F100016A
:101520004FEAD00040EA41704FEAD10110EB80054C
:101530004FEA810444EA907444EB01046D1944EBD2
:101540000404521BA3414FF0000348BF0A3200D5E8
:1015500030BD401C41F1000130BD00002DE9F041DB
:101560001F46044603260168072A01F4006004DBD5
:1015700008B116A505E016A503E008B115A500E021
:1015800015A521F010002060A069C01EA0610FB158
:10159000401EA0612046FEF7D5FE4FB1D4E90121DF
:1015A00038469047206A401C2062C01C206206E03A
:1015B000206AFAE7D4E9012115F8010B9047761E5D
:1015C000F8D22046FEF7D4FEBDE8F0814E414E0031
:1015D0006E616E00494E4600696E660010B5436943
:1015E00013B1AFF3008001E0FFF73AFE012010BD18
:1015F000128800F1240182840022C2840122EDE7D6
:1016000011684FF0FF32E9E72DE9F04781461646B1
:101610008AB0354878440DC88DE80D0032487844CA
:10162000801C03AC0DC884E80D0041F69B300844D3
:10163000372190FBF1F290FBF1F5A5F1800501FB5C
:1016400012041B3C02D56442012000E00020DFF8B8
:1016500098A080460027FA44AAF1BE0A0EE0E007EF
:101660000AD03246684607EB470101230AEB8101A5
:1016700000F09EFC8DE8070064107F1C002CEED16A
:10168000194F7F44AE3F19E0E80715D007EB04106F
:101690000DF1180A90E80E008AE80E00C068F042CA
:1016A00001D1981908903246012306A903A800F039
:1016B0007FFC03AB83E807006D10641C002DE3D1B1
:1016C0004FF0010332466946B8F1000F03A802D07B
:1016D00000F059FC01E000F06BFCC9E90001C9F819
:1016E00008200AB0BDE8F0872C610000007B00F004
:1016F0008000704770B516460C460546FFF7AEFAF7
:10170000036893F80101012806D0FF2C0FD8185D5B
:1017100068B101202C7070BDD3F807013246214614
:1017200003F2071303442846BDE8704018474FF002
:10173000FF3070BD7546FFF7C3FEAE460500694633
:10174000534620F00700854618B020B5FEF7A6FDE9
:10175000BDE820404FF000064FF000074FF00008B2
:101760004FF0000B21F00701AC46ACE8C009ACE833
:10177000C009ACE8C009ACE8C0098D46704700005C
:101780002DE9F04F04460D46D21D22F0070089B026
:10179000D0E900974846394601F0D9F90246F80FDA
:1017A00001D02D2307E02068810701D52B2302E01B
:1017B000202101EAC0038DF820300BB1012000E0A8
:1017C0000020032A824601D0072A04DB294620464E
:1017D000FFF7C4FE3FE12078800601D40D2500E02C
:1017E000E569C7F30A560D2D49DA00214FEA175B68
:1017F00008464FF00000002F00F4400007DA00EB2D
:1018000080004FF4400100EBD07001EA60008115C8
:10181000012901DD4FF0FF3100224FEA850CBCF1B8
:10182000180F06D31346ACF118004FF08052C24097
:1018300003E04FF4801323FA0CF30CF10C0CBCF111
:10184000200F04D3ACF1200C09FA0CF001E007FAE8
:101850000CF000294FF0004801DD18B90FE00ED15F
:1018600040450CD319EB02095F4121B9404502D133
:101870009F4329EA0209BBEB175F00D0761C208842
:10188000000502D57B48784402E07A48784419384C
:1018900008AA302302F80A30037C0AF10101002E65
:1018A0000AF1020A53546A4602DC4FF0300101E0AB
:1018B0004FF031014FF001088DF8001002D0A6F270
:1018C000FF3603E059EA470100D06B4E002D02DCE1
:1018D0002178090704D54FF002082E218DF8011058
:1018E000C44600210BE0C7F303433F01C35C491C1E
:1018F0006D1E02F80830052908F1010801DA002DF3
:10190000F1DC00210CE000EB1973491C1B786D1E03
:10191000082902F808304FEA091908F1010801DA2C
:10192000002DF0DC21688B0602D516E0A8F1010835
:10193000E04505DD02EB080313F8013C302BF5D040
:10194000B8F1000F09DD02EB080313F8013C2E2B60
:1019500003D1090701D4A8F10108002D05DD3E21BE
:1019600002F808106D1E08F10108407C002E02F8F4
:10197000080008F1010804DA2D20764202F8080078
:1019800002E02B2002F808000A214FF47A70864208
:1019900008F101080BDB96FBF0F3303302F8083056
:1019A00096FBF0F308F1010800FB136601E0642EDA
:1019B0000CDB642096FBF0F3303302F8083096FB22
:1019C000F0F308F1010800FB136601E00A2E06DBC4
:1019D00096FBF1F0303002F8080008F1010896FBA0
:1019E000F1F001FB1060303002F80800A16908F145
:1019F000010808EB050202EB0A00081AA061207832
:101A0000C00602D42046FEF79DFC216A08AE01EB19
:101A10000A00206204E0D4E9012116F8010B904786
:101A2000BAF1010AF7D22078C00602D52046FEF7A7
:101A300089FC6E4609E016F8010B3E280FD0D4E968
:101A400001219047206A401C2062B8F10108F2D2BF
:101A50002046FEF78DFC09B00320BDE8F08F206A18
:101A60002844206203E0D4E90121302090476D1E14
:101A7000EBD3F8E7F15E000002FCFFFF10B504466F
:101A8000AFF300802046BDE81040FEF7F3BB5FEAED
:101A9000400C08BF91F0000F4FEA8C234FEAC1229F
:101AA00043EA51514FEA1C5018BF00F5F0404FEA8D
:101AB000300018BF41F000415FEA6C5C00F0298003
:101AC000BCF1FF3F08BF40F080407047130C06BFD9
:101AD00012044FF0100C4FF0000C130E04BF120252
:101AE0000CF1080C130F04BF12010CF1040C930F3E
:101AF00004BF92000CF1020CD30F04BF52000CF192
:101B0000010C11464FF00002A0F11F00A0EB0C00E9
:101B1000704711F0004F08BF704731F000413FF4AB
:101B2000D5AF0B0C06BF09044FF0100C4FF0000CA2
:101B30000B0E04BF09020CF1080C0B0F04BF0901C6
:101B40000CF1040C8B0F04BF89000CF1020CCB0FBD
:101B500004BF49000CF1010CCCF12003A0EB0C00F8
:101B600022FA03F302FA0CF241EA030100F1010048
:101B7000704720F07F4C80EA030023F07F47ACEBF6
:101B8000070303F57C5300F0004003F1FF032DE948
:101B900080494FEA154B09B44FEA144325EA0B4E2E
:101BA00024EA03480FF2042606EB132749083E787F
:101BB0005FEA320203FB0667C7F5000707FB06F67C
:101BC0004FEA54374FEAD64606F1020607FB066C89
:101BD000CCF1005C4FEA1C472CEA074C07FB06F4EB
:101BE0000CFB06F504EB15464FEA961634BF0020B1
:101BF0004FF000404FEAD13706FB07FC4FEA1C4C80
:101C00000CFB0BF7D21B03FB0CF761EB07010CFB82
:101C10000EF7B0EB074072EB17420CFB08F734BF2E
:101C2000A2EB0742B2EB074261EB17414FEA0C44CB
:101C30004FEA910706FB07FC4FEA1C4C0CFB0BF725
:101C4000B0EBC74072EB573203FB0CF734BFA2EB8B
:101C5000C742B2EBC74261EB57310CFB0EF7B0EB5A
:101C6000C70072EB57720CFB08F734BFA2EBC70238
:101C7000B2EBC70261EB5771039F4FEA816141EA02
:101C8000921104EBCC044FEAD1374FEA826206FB93
:101C900007FC42EA90124FEA80604FEA1C4C0CFBB2
:101CA0000BF7D21B03FB0CF761EB07010CFB0EF7E4
:101CB000B0EB074072EB17420CFB08F734BFA2EB06
:101CC0000742B2EB074261EB17414FEA8C554FEAEE
:101CD000910704EB9C2406FB07FC4FEA1C4C0CFB11
:101CE0000BF7B0EBC74072EB573203FB0CF734BF76
:101CF000A2EBC742B2EBC74261EB57310CFB0EF7C8
:101D0000B0EBC70072EB57720CFB08F734BFA2EBC5
:101D1000C702B2EBC70261EB577115EB4C254FEAD6
:101D2000816141EA92114FEA82624FEAD13742EA79
:101D3000901206FB07FC44F100044FEA80604FEA72
:101D40001C4C0CFB0BF7D21B03FB0CF761EB0701E0
:101D50000CFB0EF7B0EB074072EB17420CFB08F7D9
:101D600034BFA2EB0742B2EB074261EB174115EB20
:101D70001C154FEA813141EA92414FEA823242EA30
:101D800090424FEA80304FEA0C7644F1000448EA72
:101D900003434EEA0B484FF0000EB2EB080C71EB18
:101DA000030724BF624639464EEB0E0E4FF0000B80
:101DB0000018524149414BEB0B0BB2EB080C71EB95
:101DC00003077BF1000B24BF624639464EEB0E0E33
:101DD0004FF0000B0018524149414BEB0B0BB2EB9B
:101DE000080C71EB03077BF1000B24BF62463946F8
:101DF0004EEB0E0E51EA020718BF46F0010616EB35
:101E00000E7655F1000254F1000103D5BDE88901B9
:101E1000BDE80088BDE88901BDE80048B619524117
:101E200041EB0101A3F10103704780807F7E7D7C3F
:101E30007B7A7978777676757473727171706F6E5C
:101E40006E6D6C6C6B6A6A69686867666665646407
:101E5000636362616160605F5F5E5E5D5D5C5C5B91
:101E60005B5A5A5959585857575656555555545400
:101E7000535352525251515050504F4F4F4E4E4D5E
:101E80004D4D4C4C4C4B4B4B4A4A4A4949494848AA
:101E900048474747474646464545454444444443EA
:101EA00043434342424242414141002B9C4630D48D
:101EB00077002BD01CB54FEA370703B44FF0100062
:101EC0004FF01001BAF1000F06D0BCF1000FDCBFDB
:101ED00040F0080040F008014FF000000FBCBDE8E2
:101EE00010400BF1010BBBF1010F08BF5FEA1707B0
:101EF00022BF12F1010211F101014FF0004143F143
:101F0000000300F0004043EA00007047F9D357088F
:101F1000D0E746EA064613F1400F4FEA16461FDDAA
:101F200013F1200FDFBF16430A46002120335B4226
:101F3000BED0C3F1200746EA064602FA07F74FEA89
:101F4000164646EA0706C3F1200722FA03F201FA11
:101F500007F721FA03F14FF0000342EA0702A7E76F
:101F600046EA020646EA06464FEA164646EA0106F1
:101F7000BCBF46EA0646360C4FF000034FF00002A5
:101F80004FF0000194E72DE9804C9A46934670B4D7
:101F900091E8380007C831EA400C48BF34EA430CE6
:101FA00003D5FFF7E6FDFFF780FFF0BCBDE8008C2E
:101FB0002DE9804C9A46934670B491E8380007C8E2
:101FC00010F0804F08BF13F0804F03D100F005F8E8
:101FD000FFF76BFFF0BCBDE8008C20F07F4780EA84
:101FE000030023F07F4C07EB0C03A3F57C5300F0B8
:101FF0000040A3F1FE0392F0000F00F0B38095F0D3
:10200000000F00F077802DE901494FEA11404FEAB7
:10201000144621EA004800FB06FC24EA064708FBB8
:1020200006F607FB08F800FB07F718EB06484CEB31
:10203000164C4FEA124B18EB07484FEA15464CEB8B
:10204000174022EA0B4E0BFB06FC25EA06470EFB67
:1020500006F607FB0EFE0BFB07F71EEB064E4CEBDE
:10206000164C4FF000061EEB074E4CEB174B18EBCF
:102070000B0840F1000018EB0E0B58EB000840F184
:1020800000008F1A4FF000013CBFC943661B14BF0C
:10209000B5EB040C00213CBFC943F61B4FEA1744C3
:1020A0004EEA8E0E27EA04454FEA1C4704FB0762FE
:1020B0002CEA074C05FB07F70CFB05F604FB0CFCB0
:1020C00016EB074642EB174216EB0C4642EB1C425E
:1020D0001BEB060658EB0202414146EA9E0601D57B
:1020E000BDE80189B619524141EB0101A3F1010399
:1020F000BDE801894FEA14454FEA114724EA054635
:1021000021EA074C05FB07F406FB07F70CFB06F179
:1021100005FB0CFC11EB074144EB17444FEA124757
:1021200011EB0C4144EB1C4422EA074C05FB07F27F
:1021300006FB07F70CFB06F605FB0CFC16EB074647
:1021400042EB174216EB0C4642EB1C456A1854F161
:10215000000148BF7047B619524141EB0101A3F19C
:102160000103704795F0000F37D04FEA11424FEA54
:10217000144721EA024624EA074C02FB07F106FB5A
:1021800007F70CFB06F402FB0CFC14EB074441EBD5
:1021900017414FEA154714EB0C4441EB1C4125EA6B
:1021A000074C02FB07F506FB07F70CFB06F602FBE4
:1021B0000CFC16EB074645EB174516EB0C4645EBBA
:1021C0001C42121951F1000148BF7047B619524123
:1021D00041EB0101A3F1010370474FEA14454FEAB7
:1021E000114724EA054621EA074C05FB07F106FBE7
:1021F00007F70CFB06F24FF0000605FB0CFC12EB98
:10220000074241EB174112EB0C4251EB1C4148BF16
:102210007047921841EB0101A3F10103704700BF21
:10222000FEE770472DE9F041024600250026002018
:1022300000230024002791F803C00CF00F0591F84B
:1022400003C00CF0100CBCF1000F03D091F802C0D9
:102250004CEA050591F800C0BCF1000F31D01468BC
:1022600000202BE04FF0010C0CFA00F3B1F800C095
:102270000CEA03069E4220D183004FF00F0C0CFAAB
:1022800003F7BC4305FA03FC4CEA040491F803C0CD
:10229000BCF1280F06D14FF0010C0CFA00FCC2F87B
:1022A00014C00AE091F803C0BCF1480F05D14FF00B
:1022B000010C0CFA00FCC2F810C0401C0828D1D355
:1022C0001460B1F800C0BCF1FF0F34DD5468002089
:1022D0002EE000F1080C4FF0010808FA0CF3B1F8F9
:1022E00000C00CEA03069E4221D183004FF00F0C80
:1022F0000CFA03F7BC4305FA03FC4CEA040491F81A
:1023000003C0BCF1280F05D100F1080C08FA0CF845
:10231000C2F8148091F803C0BCF1480F07D100F156
:10232000080C4FF0010808FA0CF8C2F81080401CA5
:102330000828CED35460BDE8F0810000F0B50A460D
:10234000002300240021002500F00046B6F1004FD4
:1023500002D11D4EF16901E01B4E7168C0F30345C7
:1023600083B200F44016B6F5401F08D121F0706129
:10237000154E766826F07066134F7E6012E000F40A
:102380008016B6F5801F06D1032606FA05F4A14390
:1023900041F0706106E0460D360103FA06F6B143DE
:1023A00041F0706122B1460D360103FA06F6314361
:1023B00000F00046B6F1004F02D1034EF16101E09A
:1023C000014E7160F0BD00000000014001617047E6
:1023D00000BFFEE700BFFEE77047000070B50021B8
:1023E00000230F22C47804B3154C246804F4E0647D
:1023F000C4F5E064210AC1F10403CA40447804FA38
:1024000003F184781440214309010E4C0678A1554C
:10241000047804F01F050124AC4005786D11AD006F
:1024200005F1E025C5F8004109E0047804F01F0536
:102430000124AC40044D0678761145F8264070BD65
:102440000CED00E000E400E080E100E0024901431F
:10245000024A1160704700000000FA050CED00E030
:102460007047000029B1064AD2690243044BDA6181
:1024700004E0034AD2698243014BDA6170470000ED
:102480000010024029B1064A92690243044B9A6146
:1024900004E0034A92698243014B9A61704700004D
:1024A0000010024030B500210022002400232D4DF1
:1024B0006D6805F00C0121B1042905D0082923D14C
:1024C00005E0294D056022E0274D05601FE0254D00
:1024D0006D6805F47012234D6D6805F48034022593
:1024E00005EB92421CB9214D554305600BE01D4D93
:1024F0006D6805F400351DB11C4D5543056002E0C3
:10250000194D5543056002E0174D056000BF00BF3F
:10251000144D6D6805F0F0010909154D6B5C0568F7
:10252000DD4045600F4D6D6805F4E061090A104D0E
:102530006B5C4568DD4085600A4D6D6805F460514F
:10254000C90A0B4D6B5C4568DD40C560054D6D6883
:1025500005F44041890B074D6B5CC568B5FBF3F58D
:10256000056130BD0010024000127A0000093D00F4
:10257000BA000020CA000020704710B500F002F831
:1025800010BD00000CB50020019000903348006899
:1025900040F480303149086000BF3048006800F4E2
:1025A000003000900198401C0190009818B90198E3
:1025B000B0F5A06FF1D12948006800F4003010B1E7
:1025C0000120009001E0002000900098012843D1F4
:1025D0002348006840F01000214908600846006860
:1025E00020F0030008600846006840F00200086020
:1025F0001A484068194948600846406848600846DB
:10260000406840F4806048600846406820F47C10D0
:1026100048600846406840F4E81048600846006892
:1026200040F08070086000BF0C48006800F0007047
:102630000028F9D00948406820F0030007494860A5
:102640000846406840F00200486000BF0348406808
:1026500000F00C000828F9D10CBD00000010024069
:1026600000200240042808D14FF0E021096941F020
:1026700004014FF0E022116107E04FF0E021096909
:1026800021F004014FF0E022116170477047000013
:1026900010B51348006840F0010011490860084671
:1026A0004068104908400E494860084600680E49D5
:1026B00008400B4908600846006820F48020086044
:1026C0000846406820F4FE0048604FF41F00886010
:1026D000FFF753FF4FF000600449086010BD000091
:1026E000001002400000FFF8FFFFF6FE08ED00E0DA
:1026F00010B50121094800F060F868B10848008869
:1027000040F40040064908800121044800F046F8E2
:102710000021024800F045F810BD00000004004010
:10272000160000207FB505460C4601210220FFF768
:1027300099FEADF80850ADF804400020ADF80A004D
:10274000ADF8060001A90E4800F054F80122114628
:102750000B4800F043F81D208DF8000000208DF894
:10276000010003208DF8020001208DF80300684667
:10277000FFF734FE0121024800F013F87FBD00008E
:102780000004004010B50121034800F016F80121B3
:10279000014800F003F810BD00100040CA43028257
:1027A000704721B1028842F00102028004E00288F1
:1027B0004FF6FE731A400280704730B50246002083
:1027C00000230024158A05EA0103958905EA01041E
:1027D00013B10CB1012000E0002030BD1AB1838993
:1027E0000B43838102E083898B438381704781841B
:1027F00070470000002202881D4B98420ED01D4BEE
:1028000098420BD0B0F1804F08D01B4B984205D0B6
:102810001A4B984202D01A4B984204D14FF68F734C
:102820001A404B881A43174B984207D0164B9842D0
:1028300004D04FF6FF431A40CB881A4302808B889E
:1028400083850B8803850A4B98420BD0094B98422D
:1028500008D00E4B984205D00D4B984202D00D4B3C
:10286000984201D10B7A03860123838270470000CE
:10287000002C0140003401400004004000080040EA
:10288000000C0040001000400014004000400140D7
:10289000004401400048014010B540F225511D4858
:1028A00000F08FF810B31B4800F046F9C4B21A4884
:1028B000008800F40040C8B91748008800F4804040
:1028C00060B10A2C03D000201349088020E0124890
:1028D000008840F400401049088019E00D2C06D112
:1028E0000D48008840F480400B49088010E00A48F9
:1028F0000088C0F30D0009490C5407480088401CAB
:102900000549088008460088C72801DD00200880A6
:1029100010BD000000380140B800002098CB002016
:1029200010B540F22551164800F04BF800B314489A
:1029300000F002F9C4B21348008800F40040B8B9AE
:102940001048008841F27071884212DA00210E4866
:10295000FFF74DFF0B48008818B901210A48FFF71F
:1029600020FF08490888411C064A118007490C5479
:1029700005E00448008840F400400249088010BD8A
:10298000004400401600002000040040DE0000204B
:1029900021B1828942F40052828104E082894DF69D
:1029A000FF731A408281704702460020B1F5007F14
:1029B00000D100BF13880B400BB1012000E00020C4
:1029C000704770B50246002400230025002040F621
:1029D0006A16B14200D100BFC1F3421501F01F03D6
:1029E000012606FA03F3012D02D19689334006E051
:1029F000022D02D1168A334001E0968A33400C1230
:102A0000012606FA04F41688344013B10CB10120F3
:102A100000E0002070BDF0B503460024002600252C
:102A2000002040F66A17B94200D100BF1846C1F332
:102A3000421401F01F06012707FA06F5012C01D107
:102A40000C3004E0022C01D1103000E014301AB137
:102A500007682F43076002E00768AF430760F0BDD7
:102A60002DE9F04786B005460E460024A24600BF79
:102A7000A1460027B08900B100BF2F462C8A4CF632
:102A8000FF700440F08804432C82AC894EF6F310AA
:102A90000440B08831890843718908430443AC81FC
:102AA000AC8A4FF6FF400440B0890443AC8201A8D1
:102AB000FFF7F8FC1F48874202D1DDF810A001E0C3
:102AC000DDF80CA0A88900F4004040B10AEBCA0070
:102AD00000EB0A1031684900B0FBF1F807E00AEB9F
:102AE000CA0000EB0A1031688900B0FBF1F86420DD
:102AF000B8FBF0F004012009642101FB1089A889CA
:102B000000F4004040B1322000EBC900B0FBF1F00E
:102B100000F00700044308E0322000EB09106421B4
:102B2000B0FBF1F000F00F0004432C8106B0BDE8CB
:102B3000F08700000038014001468888C0F3080093
:102B40007047C1F308028280704700BFFEE749006A
:102B500050EAC12018BF04204A0D18BF40F0010000
:102B600040F2FF72B2EB515F08BF40F00200012853
:102B700008BF052070472DE9F0414F1E00EBC7014B
:102B80000446D1E9000115461E4637F006020DD075
:102B90002A46334603F018FE7F1E04EBC703D3E931
:102BA000002303F011FB37F00602F1D1022F25D0EC
:102BB000042F13D0062F18BFBDE8F0812A463346F4
:102BC00003F002FED4E90A2303F0FEFA2A46334654
:102BD00003F0FAFDD4E9082303F0F6FA2A46334657
:102BE00003F0F2FDD4E9062303F0EEFA2A46334659
:102BF00003F0EAFDD4E9042303F0E6FA2A4633465B
:102C000003F0E2FDD4E9022303F0DEFA2A4633465C
:102C100003F0DAFDD4E90023BDE8F04103F0D4BAB3
:102C2000002213461046014903F08ABB0000F03F22
:102C3000012204F00FB903F0C7BA00221346104670
:102C4000114603F07DBB40F2013200204FF0E0411D
:102C500004F000B9024A0020110704F0FBB800009C
:102C600001FDFFFF30380A2801D201207047002003
:102C70007047014600BF704770B5044600250948FB
:102C8000008800F4004058B1002006490988C1F3CB
:102C90000E01054A505421461046FDF7EDFC05464D
:102CA000284670BD16000020DE00002010B500BFD1
:102CB0001748008800F040000028F9D02B20144964
:102CC000091D08800F2000F0AFFA00BF10480088EF
:102CD00000F040000028F9D02B200D49091D088084
:102CE0000F2000F0A1FA00BF0948008800F0400062
:102CF0000028F9D02B200649091D08804FF4FA70EE
:102D000000F092FA142203A103A000F007F810BD0E
:102D1000004400404F4B0000415400002DE9F041B9
:102D200006460C4615460027002014490880314607
:102D300013A003F029F9ECB1E5B114E00A2000F08A
:102D400073FA0E48008800F4004060B12046FFF797
:102D500093FF28B1224631460BA0FDF7D1FA06E0D9
:102D6000002006490880681E80B2051EE6D100BF1B
:102D700005B901273846BDE8F081000016000020A3
:102D800025730D0A00000000B7A2CBCDA3BA2573AE
:102D900020BBD8D3A63A25730D0A000010B5E4B0C5
:102DA000012439A0FDF7ACFA08E03AA0FDF7A8FA33
:102DB000FFF77CFF4FF47A7000F036FA142239A145
:102DC00039A0FFF7ABFF0028EFD1C82235A137A00B
:102DD000FFF7A4FF4FF47A7000F026FA4FF47A70F0
:102DE00000F022FA4FF47A7000F01EFAC8222DA1EA
:102DF00031A0FFF793FF00BF14222AA132A0FFF7F2
:102E00008DFF0028F8D1322226A131A0FFF786FFDE
:102E10004FF47A7000F008FA4FF47A7000F004FA78
:102E20004FF47A7000F000FA4FF47A7000F0FCF979
:102E300014221CA129A0FFF771FF2BA330A234A1FB
:102E400032A8FDF769FA2EA236A16846FDF764FAAA
:102E50000BE02146621CD4B233A0FDF751FAFA2CE4
:102E600000DB0024642000F0DFF94FF4967237A1F4
:102E700032A8FFF753FF0028EBD137A0FDF740FA47
:102E8000002064B010BD0000D7BCB1B8C1ACBDD348
:102E90000D0A0000CEB4BCECB2E2B5BDC4A3BFE9DC
:102EA0000D0A00004F4B00004154000041542B52CA
:102EB0004553544F5245000041542B4349504D4F08
:102EC00044453D3000000000415445300000000002
:102ED00041542B43574D4F44453D310041542B4302
:102EE00049504D55583D30007777772E77616E67A2
:102EF0006368616F6368616F2E746F70000000001B
:102F000073746D33325F323031395F6E636F7600C8
:102F100041542B43574A41503D222573222C2225F0
:102F2000732200002573000057694669C1ACBDD308
:102F3000CAA7B0DC2CD5FDD4DAB3A2CAD4B5DA2046
:102F4000256420B4CEC1ACBDD30D0A005749464913
:102F500020474F542049500057694669C1ACBDD342
:102F6000B3C9B9A60D0A0000F0B5B3B004460D46CA
:102F70001646002764221CA11CA0FFF7CFFE642286
:102F800019A11DA0FFF7CAFE2B4622461FA101A8CA
:102F90000096FDF7C1F90DE039467A1CD7B222A0A0
:102FA000FDF7AEF9642000F03FF90A2F02DB0120A3
:102FB00033B0F0BDC8220CA101A8FFF7AFFE002876
:102FC000EAD14FF4967000F02FF9642206A11FA0F9
:102FD000FFF7A4FE002021490880642202A120A05E
:102FE000FFF79CFE0020E3E74F4B000041542B43CA
:102FF00049504D55583D300041542B43495053538F
:103000004C53495A453D34303936000041542B4326
:10301000495053544152543D222573222C2225738A
:10302000222C257300000000617069C1ACBDD3CAB9
:10303000A7B0DC2CD5FDD4DAB3A2CAD4B5DA2025EA
:103040006420B4CEC1ACBDD30D0D0A0041542B4356
:1030500049504D4F44453D3100000000160000200E
:1030600041542B43495053454E44000070B504462B
:1030700022E02568A08900F4807020B9A06810B112
:10308000A068FFF7F3FFA08900F4807028B92069D9
:1030900018B10B49206909688847A08900F40070BD
:1030A00028B9206A18B10649206A0968884720466D
:1030B0000349096888472C46002CDAD170BD00000E
:1030C000340000200246906801E0491E006808B103
:1030D0000029FADC704700000148006870470000D2
:1030E0002C00002070B505460E46AC6800E0246850
:1030F0002CB13146206A00F04FF80028F7D1204665
:1031000070BD000010B528200549096888470446AD
:103110001CB128212046FDF77FFB204610BD000092
:103120003000002010B5044600221146204600F071
:1031300001F810BD2DE9F04780460D4616460024E3
:10314000FFF7E0FF07460020124908600FB9BDE80D
:10315000F087404602F0E8FE81464946384602F0D4
:1031600099F9044624B93846FFF780FF0020EEE7BE
:1031700066B1204602F0D8FE0446207830B13846C9
:10318000FFF774FF034804600020E0E705B12C60FE
:103190003846DCE72C00002070B504460D462CB9FB
:1031A000AC4201D0012070BD0020FCE70DB9012028
:1031B000F9E705E0207808B90020F4E7641C6D1CED
:1031C0002078FDF77EF806462878FDF77AF88642E3
:1031D000F0D02078FDF775F806462878FDF771F8ED
:1031E000301AE0E710B56FF00400FFF73BFA0A4829
:1031F00000680A49B0FBF1F00949087008460078F8
:1032000000EB4001C1EBC0104FF6FF7101EAC000B6
:103210000449088010BD00000000002000127A0060
:10322000B0000020B20000200146114A12884A4333
:103230004FF0E0235A6100229A611A46126942F067
:1032400001021A6100BF4FF0E022106900F0010294
:103250001AB100F48032002AF5D04FF0E022126952
:1032600022F001024FF0E0231A6100229A617047B8
:10327000B200002000BF054A128802F04002002A76
:10328000F9D0C2B2014B1B1D1A80704700380140B3
:1032900070B504460D46214613A0FDF731F82146CE
:1032A00017A002F071FE1420FFF7BEFF002017499F
:1032B00008804FF47A70FFF7B7FF1448008800F4D5
:1032C000004030B1002011490988C1F30E01104AB5
:1032D0005054A84700200D49088041F270710C48F5
:1032E000FDF778FA002070BDBBF1C8A1D2DFC7E9B5
:1032F000CAFDBEDD3A4745542025730D0D0A000076
:103300004745542025730D0A0D0A000016000020C1
:10331000DE0000202DE9F05F0746884614469946F6
:10332000B9F1010F13D108EB04001FFA80FBF02C58
:1033300001DD4FF0F00B464606E0314638460A9A6A
:1033400000F00AFB701C86B25E45F6DB15E0B9F1B1
:10335000000F12D138191FFA80FAB4F5A07F01DDF1
:103360004FF4A07A3D4606E0414628460A9A00F00E
:10337000F3FA681C85B25545F6DBBDE8F09F2DE9F0
:10338000F04106460F4614461D4624B12A463946EA
:10339000304600F0E1FABDE8F08100002DE9F04789
:1033A00004460E4690469946374636E025462EE0BE
:1033B000281B082813DA08EBC8001B4901EB800022
:1033C000001DB91B10F811002B1B8021194100EAC8
:1033D00001024B4639462846FFF7D1FF15E008EBBE
:1033E000C800114901EB8000001DB91B012303EB4C
:1033F0004101405C291B083980230B4100EA03028C
:103400004B4639462846FFF7BAFF681C85B204F1DF
:1034100010008542CCDB781C87B206F11000874291
:10342000C4DBBDE8F0870000607100082DE9F047BB
:1034300004460D46904699462F4618E0264610E071
:103440000E4800EB0810791B405C321B80211141B3
:10345000084020B14A463946304600F07DFA701CDB
:1034600086B204F108008642EADB781C87B205F1D7
:1034700010008742E2DBBDE8F0870000E47400083A
:103480002DE9F04105460F46144698462E462FE09A
:10349000207830280BDB2078392808DC2078303879
:1034A00082B2434639463046FFF7C0FF1CE0207821
:1034B0002D2806D143460B2239463046FFF7B6FF8A
:1034C00012E020783A2806D143460A22394630468F
:1034D000FFF7ACFF08E02078202805D143460C22F6
:1034E00039463046FFF7A2FF641C06F1080086B299
:1034F00020780028CCD1BDE8F081000070B5002410
:1035000023E000251DE0134810F814108020284106
:1035100001EA0002002329462046FFF730FF012080
:1035200000EB44000B4B185C80232B4100EA0302A4
:1035300005F1080081B200232046FFF720FF681C38
:1035400085B2082DDFDB601C84B2B4F5A07FD8DB28
:1035500070BD0000E06E00082DE9FC4106460F46F4
:10356000154600244FF0190800BF18E004EBC40012
:10357000104951F82000009004EBC40051F82000DD
:10358000401C019029460098FDF76EF928B9691C86
:103590000198FDF769F900B903E0601CC4B2444525
:1035A000E4DB00BF0023224639463046FFF7F6FE33
:1035B000BDE8FC8160710008F8B505460F46144669
:1035C0002E460CE020788DF8000060788DF8010020
:1035D000B0B26A463946FFF7BFFFA41C1036207808
:1035E0000028EFD1F8BD2DE9F04104460D461746FD
:1035F0001E46DDF818802A4621460020FFF7DCFF32
:1036000032462146C020FFF7D7FF1F233A46214606
:10361000502000F0CBF81F23424621464FF4807023
:1036200000F0C4F8BDE8F0810FB438B514240020D0
:103630000346220112210090FFF76CFE3DA22146B5
:103640008020FFF7B9FF00200346220126210090C9
:10365000FFF760FE0598009039A33CA104F1140027
:10366000049AFFF7C0FF0798009035A33AA104F130
:103670002800069AFFF7B7FF0998009030A339A1F8
:1036800004F13C00089AFFF7AEFF0B9800902CA3C2
:1036900037A104F150000A9AFFF7A5FF0D9800909A
:1036A00027A336A104F164000C9AFFF79CFF0020C9
:1036B000034622018A210090FFF72CFE32A28C21C2
:1036C0008020FFF779FF0020034622019E21009011
:1036D000FFF720FE1498009019A31CA104F18C00A0
:1036E000139AFFF780FF1898009015A329A104F101
:1036F000A000179AFFF777FF1C98009010A31FA156
:1037000004F1B4001B9AFFF76EFF0020034622016C
:10371000DC210090FFF7FEFD21A2DE21A020FFF7B3
:103720004BFF1F230EAADE21E620FFF7A9FE38BCBF
:103730005DF814FBB9FAC4DAD2DFC7E90000000073
:10374000BDCFD7F2C8D5A3BA00000000CFD6B4E6EB
:10375000C8B7D5EFA3BA0000C0DBBCC6C8B7D5EF69
:10376000A3BA0000C0DBBCC6D6CED3FAA3BA000011
:10377000CFD6B4E6D6D8D6A2A3BA0000C0DBBCC66A
:10378000CBC0CDF6A3BA0000C8ABC7F2D2DFC7E901
:1037900000000000C0DBBCC6D6CED3FA000000009B
:1037A000B8FCD0C2D3DAA3BA000000002DE9FC5F58
:1037B00005468846164699464FF0000B6A4601A911
:1037C000304601F02DF89DF8000008B1704200E08D
:1037D0003046824600244DE0BDF80400001B401E28
:1037E00081B20A2001F044F8BAFBF0F00A21B0FBE4
:1037F000F1F201FB1207BBF1000F20D1BDF804006C
:10380000401EA0421BDDC7B99DF8000001280AD167
:10381000082101FB0451083188B24B460C22414675
:10382000FFF704FE08E0082101FB045188B24B4673
:103830000C224146FFF7FAFD1AE04FF0010B9DF80C
:10384000000001280AD1082101FB0451083188B287
:103850004B463A464146FFF7E9FD08E0082101FBE7
:10386000045188B24B463A464146FFF7DFFD00BFA0
:10387000601C84B2BDF804008442ADDB9DF80000FA
:10388000012805D14B460B2241462846FFF7CEFDC5
:10389000BDE8FC9F10B5044614B10120144908701E
:1038A00013480078B8B11348006818B11148001DDA
:1038B000006880B90A20FFF7B7FC00200C490870A7
:1038C0000C48006808B9012010BD0A48001D0068B6
:1038D00060B90220F8E707480068012806D10548CA
:1038E000001D0068012801D1014908700020EBE7A4
:1038F000140000200001214270B504460025124842
:103900000688408846430021084600F077FA0E49B1
:10391000088900F0FBFB00BF12E001200B490860A2
:1039200000200B49C1F8A4010A480460002007499F
:10393000091F0860012008600449091D08606D1C0A
:10394000B542EAD370BD0000D0000020A0012242A1
:10395000000022420C0C014030B503460C461546CF
:103960003949488900F0D2FB01203849086000201D
:103970003749C1F8A40118123649086000203349BC
:10398000091F0860012008603049091D0860091FEF
:1039900008600020091D0860D8B22E490860002088
:1039A0002A49091F0860012008602949C1F8A401BB
:1039B0002549888900F0AAFB0120244908600020DD
:1039C000091D086020122349086000201F49091FB3
:1039D0000860012008601D49091D0860091F086072
:1039E0000020091D0860E0B21A490860002017494C
:1039F000091F0860012008601449091D08600020A3
:103A0000091F08601249C1F8A4010F480089114933
:103A1000086000200D49091F0860012008600B495B
:103A2000091D0860091F086000200949C1F8A401A8
:103A30000848056000200549091F0860012008604A
:103A40000349C1F8A40130BDD0000020A0012242EA
:103A5000000022420C0C014038B5044601211D2013
:103A6000FEF710FD0121C348FEF768FC4FF47070AB
:103A7000ADF8000010208DF8030003208DF802003F
:103A80006946BD48FEF7CEFB4FF48070ADF80000EC
:103A90006946BA48FEF7C6FB4FF47071B648FEF7A8
:103AA00095FC4FF48071B548FEF790FC4FF6FF701F
:103AB000ADF800006946B248FEF7B4FB4FF6FF715F
:103AC000AF48FEF783FC3220FFF7AEFB0121002058
:103AD00000F04EFB3220FFF7A7FB002000F086F934
:103AE000A849888008468088FF280ADB0846808825
:103AF0004FF6FF71884204D0A2488088B0F5134F7A
:103B000019D1D32000F002FB00F040F900F03EF99B
:103B100000F03CF99B498880084680884FF6FF7189
:103B200001EA00209749888000F030F9954989889A
:103B3000084394498880CF2000F0E8FA002000F084
:103B4000FDFAC12000F0FAFA302000F0F7FAED207B
:103B500000F0DCFA642000F0F1FA032000F0EEFA45
:103B6000122000F0EBFA812000F0E8FAE82000F0E3
:103B7000CDFA852000F0E2FA102000F0DFFA7A207A
:103B800000F0DCFACB2000F0C1FA392000F0D6FAC0
:103B90002C2000F0D3FA002000F0D0FA342000F0FE
:103BA000CDFA022000F0CAFAF72000F0AFFA202088
:103BB00000F0C4FAEA2000F0A9FA002000F0BEFAF2
:103BC000002000F0BBFAC02000F0A0FA1B2000F09B
:103BD000B5FAC12000F09AFA012000F0AFFAC52032
:103BE00000F094FA302000F0A9FA302000F0A6FA94
:103BF000C72000F08BFAB72000F0A0FA362000F0C2
:103C000085FA482000F09AFA3A2000F07FFA552011
:103C100000F094FAB12000F079FA002000F08EFA5A
:103C20001A2000F08BFAB62000F070FA0A2000F09B
:103C300085FAA22000F082FAF22000F067FA002054
:103C400000F07CFA262000F061FA012000F076FAFC
:103C5000E02000F05BFA0F2000F070FA2A2000F05C
:103C60006DFA282000F06AFA082000F067FA0E20AA
:103C700000F064FA082000F061FA542000F05EFAC7
:103C8000A92000F05BFA432000F058FA0A2000F067
:103C900055FA0F2000F052FA002000F04FFA0020F1
:103CA00000F04CFA002000F049FA002000F046FA3B
:103CB000E12000F02BFA002000F040FA152000F07F
:103CC0003DFA172000F03AFA072000F037FA1120E9
:103CD00000F034FA062000F031FA2B2000F02EFA22
:103CE000562000F02BFA3C2000F028FA052000F0C6
:103CF00025FA102000F022FA0F2000F01FFA3F20D2
:103D000000F01CFA3F2000F019FA0F2000F016FA1C
:103D10002B2000F0FBF9002000F010FA002000F04A
:103D20000DFA012000F00AFA3F2000F007FA2A20DD
:103D300000F0ECF9002000F001FA002000F0FEF99C
:103D4000002000F0FBF9EF2000F0F8F9112000F05E
:103D5000DDF97820FFF768FA292000F0D7F9012073
:103D600000F0A8F80120084908602046FFF7C4FDCC
:103D700038BD000000023000001001400008014082
:103D8000000C0140D0000020A00121424FF08831FA
:103D9000134A1160121D11600021114A0C3211608A
:103DA0000121104A116000210F4AC2F8A411C2F883
:103DB00098110B490831096888B20121094A083A6B
:103DC0001160084A121D11604FF03331044A11602E
:103DD000121D11604FF6FF71014A0C3211607047DD
:103DE000000C0140A00122420000224200B503461F
:103DF000184600F08BF9FFF7C9FF00BD10B5034668
:103E00000C462849488900F081F9012026490860BC
:103E100000202649C1F8A401181225490860002095
:103E20002149091F0860012008601F49091D086019
:103E3000091F08600020091D0860D8B21C490860ED
:103E400000201949091F0860012008601749C1F8BE
:103E5000A4011449888900F059F901201249086029
:103E60000020091D086020121149086000200E4939
:103E7000091F0860012008600B49091D0860091F1F
:103E800008600020091D0860E0B2094908600020B0
:103E90000549091F0860012008600449C1F8A40110
:103EA00010BD0000D0000020A001224200002242EC
:103EB0000C0C014010B5044674B900200F498871FC
:103EC000F02008804FF4A07048802C2008812A2020
:103ED00048812B2088810DE00120084988714FF42A
:103EE000A0700880F02048802C2008812A2048817A
:103EF0002B208881032000F003F810BDD0000020A3
:103F0000F0B5054600240027082D15D2DFE805F09E
:103F10000406080A0C0E101206250DE007250BE01A
:103F2000042509E0052507E0012505E0002503E05B
:103F3000032501E0022500BF00BF082D1CD2DFE8E9
:103F400005F00406090C0F12151800BF14E044F028
:103F5000800411E044F040040EE044F0C0040BE0A3
:103F600044F0200408E044F0600405E044F0A004BC
:103F700002E044F0E00400BF00BF362744F008042C
:103F80002146384600F0F4F804F0200068B15B48A0
:103F900000885A494988884214DA58480688408877
:103FA00056490880084646800CE05448008853492A
:103FB0004988884206DD5148068840884F49088074
:103FC000084646804D49488900F0A0F801204C4938
:103FD000086000204B49C1F8A4014B4908604849DA
:103FE000091F0860012008604549091D0860091F74
:103FF00008600020091D0860434908604049091F06
:104000000860012008603E49091D0860091F08601A
:1040100000203C49C1F8A40138480088401E001225
:104020003949086000203649091F086001200860EE
:104030003349091D0860091F086000203149C1F893
:10404000A4012E480078401EC0B22F49086000200D
:104050002B49091F0860012008602A49C1F8A40102
:104060002649888900F052F801202549086000207F
:10407000091D0860244908602149091F08600120C2
:1040800008601F49091D0860091F08600020091DFC
:1040900008601D4908601A49091F0860012008606E
:1040A0001749091D0860091F086000201549C1F85B
:1040B000A40112484088401E0012134908600020E5
:1040C0000F49091F0860012008600D49091D08609B
:1040D000091F086000200B49C1F8A4010748807837
:1040E000401EC0B20849086000200549091F086049
:1040F000012008600349C1F8A401F0BDD0000020F0
:10410000A0012242000022420C0C01400021084A7A
:104110001160084AC2F8A411074908600021044A46
:10412000121F116001211160014A121D11607047B8
:10413000A0012242000022420C0C01400121094A48
:1041400011600021084AC2F8A41108490860002142
:10415000044A121F116001211160024A121D1160F0
:1041600070470000A0012242000022420C0C0140D6
:1041700010B504460B462046FFF7C8FF0120094949
:10418000086000200849C1F8A40108480360002025
:104190000449091F0860012008600249091D0860E0
:1041A00010BD0000A0012242000022420C0C014080
:1041B00008B501210420FEF765F9C020ADF8000024
:1041C00010208DF8030003208DF802006946044892
:1041D000FEF728F8C0210248FEF7F8F808BD0000F5
:1041E000000801402DE9F04DC84A002490B09142EA
:1041F00005DA21F00043934201D805D120B110B077
:10420000BDE8F04DFEF714BDB1F5801F1BDA53EA8F
:10421000000209D0002911DA0120FCF730FD10B0AE
:10422000BDE8F04DFEF709BD0220FCF728FDFEF7C2
:10423000F7FC10B081F00041BDE8F08D6FF035045F
:10424000362202F007FE04EB2152C1F31308B049F5
:10425000A2F2FF33414401F4801282F07F6103EB4C
:10426000225281F04051009241EA08010022A94BFC
:1042700002F0D0FC044608F10200A74EC0F3130080
:104280000D467E44032867D2D6E90023204602F07B
:10429000AFF91ED10098002802BFD6E9000110B086
:1042A000BDE8F08D02F03DFA07460C469B4A9C4B58
:1042B00002F08AFA06460D469A4A9B4B384621463A
:1042C00002F082FA10B032462B46BDE8F04D01F004
:1042D0007BBF4FF05532954B2046294602F074FAC9
:1042E0000022934B02F0A4FB06460F4622462B46C3
:1042F0001046194602F068FA32463B4602F064FA6C
:10430000064600980F46F0B102F00BFA80468A4646
:10431000824A834B02F058FA32463B4602F088FB51
:1043200022462B4602F076FC05460C467D4A7E4B23
:104330004046514602F048FA10B02A462346BDE8EE
:10434000F04D02F067BC0B4610B0324620462946BD
:10435000BDE8F04D02F05EBC00224FF080432046E5
:1043600001F032FF02460B462046294601F0E8FFE5
:1043700006460F46009802F0D4F9CDE90401324612
:104380003B461046394602F01FFA0C9069480C9AD9
:104390004044019009910B46104602F015FA8246FE
:1043A000024665488B46C8F151080B4608F5D728E8
:1043B00003217844FEF7DFFB52465B4602F004FA25
:1043C0000A905E480D9152465B4604217844FEF700
:1043D000D2FB099B0C9A02F0F7F9844601980D9BD9
:1043E00040EA080860460A9A01F0EEFE834608910A
:1043F000B8F1000F4EDD4FF0FF322046294602F0A3
:1044000029FD22462B4602F0DFF9804600988A46B5
:1044100060B3DDE90401414A414B02F0D5F909914D
:1044200000905A4640465146089B01F0CDFE324668
:104430003B4602F0C9F9099B009A01F0C5FE4246CD
:10444000534602F0F5FA22462B4602F0E3FB0446FF
:104450000D46DDE90401334A334B02F0B5F910B0E3
:1044600022462B46BDE8F04D02F0D4BB5A464046EA
:10447000089B01F0A9FE32463B4602F0A5F94246F0
:10448000534602F0D5FA10B022462B46BDE8F04D57
:1044900002F0CEBA009840B3DDE904011F4A204B78
:1044A00002F092F980468A465A4620462946089BE1
:1044B00002F0B0FB32463B4602F086F942465346D4
:1044C00002F0A8FB22462B4602F0A4FB04460D4650
:1044D000DDE90401134A144B02F076F910B02246CC
:1044E0002B46BDE8F04D02F095BB0B465A462046E0
:1044F000294602F08FFB32463B4602F065F910B0C8
:1045000022462B46BDE8F04D02F092BA0000F07F43
:10451000645F09000000F03F3A340000763C7935D2
:10452000EF39EA3D0000E0FE422EE63F5555D53F0B
:104530000000E03F86EBF9FFD2320000D0320000ED
:104540002DE9F041044630480025814205DA21F08A
:104550000042824201D805D124B12046BDE8F04195
:10456000FEF766BBB1F5801F1BDA52EA040008D0E3
:1045700000290FDA0120FCF782FBBDE8F041FEF7CD
:104580005CBB0220FCF77BFBFEF74AFB81F000419D
:10459000BDE8F0816FF035053622204602F05AFC66
:1045A000044605EB2150A0F2FF32D00F40F2FF335A
:1045B0001B1A0D4663F31F55104402F0B2F806466D
:1045C0000F4629462046FFF70DFE104A104B02F019
:1045D000FBF804460D460F4A0F4B3046394602F0B1
:1045E000F3F822462B4601F0EFFD05460C460B4A38
:1045F0000B4B3046394602F0E7F82A462346BDE821
:10460000F04101F0E1BD00000000F07F0EE526154D
:104610007BCBDB3F362BF111F3FE593D00609F5001
:104620001344D33F4FF4A060FDF710FFFFF7C0FD28
:10463000FEF7D8FD4FF4E13001F0CEFC4FF4E1304D
:1046400001F01AFD4FF6FF70FFF706FAFEF756FF6E
:1046500000F07CF8FEF7A2FB16A217A11AA0FEF745
:1046600083FC1A491AA0FEF713FE21E00020FFF791
:1046700011F9012802D0022806D104E0134914A040
:10468000FEF706FE01E000E000BF00BF00201B496E
:1046900008601B49C1F89C016420FEF7C5FD01209C
:1046A000164908601649C1F89C016420FEF7BCFD5C
:1046B000DCE700003434330034372E3130322E3111
:1046C00031372E323533000053534C00994A0008DD
:1046D00068747470733A2F2F6C61622E6973616114
:1046E000636C696E2E636E2F6E436F562F61706917
:1046F0002F6F766572616C6C00000000980121429A
:104700000000214270B505460F48007C20B90E49D3
:1047100008688047012070BDB5F5284F11D269099E
:104720000948C06830F81120002406E00020064B3C
:10473000DB680E1923F81600641C9442F6DB002097
:10474000E9E70220E7E700001800002000B509496A
:104750004FF42862C868002100F0B4F805494FF40E
:1047600028428868002100F0ADF801200149087452
:1047700000BD0000180000202DE9F041064600248D
:10478000A0461A48007C10B91849086880471EB92D
:104790004FF0FF30BDE8F081C6F34F1506F01F0063
:1047A00008B1681C85B240F23F541AE00F48C06857
:1047B00030F8140020B908F101001FFA80F801E078
:1047C0004FF00008A8450BD1002705E00748C06856
:1047D000E11920F811507F1CAF42F7D36001D9E7EF
:1047E000641E002CE2DA4FF0FF30D3E718000020FF
:1047F0000022002106E00948C06830F8110000B12D
:10480000521C491CB1F5A86FF5D3642050434FF4F6
:10481000A863B0FBF3F0C0B270470000180000209E
:104820002DE9F047044689469246002C0FDA012014
:104830008AF80000604201F074FF0546FFF780FE31
:10484000074601F011FF401CA9F800000EE000200F
:104850008AF80000204601F064FF0746FFF770FE6B
:10486000054601F001FF401CA9F80000BDE8F087F3
:1048700010B50246012000E050430B1EA1F10104D7
:10488000A1B2F9D110BD000070B5044604B970BDE5
:1048900003488068251A2846FFF734FF00BFF6E773
:1048A0001800002070B505462846FFF765FF04464E
:1048B000601C08B9002070BD014880682044FAE7F8
:1048C0001800002030B5034601E003F8011B141E58
:1048D000A2F10102F9D130BD2DE9F04705460C46A1
:1048E00020785B2804D0264804600020BDE8F087CB
:1048F0000520E860601C01F017FB044620785D2865
:1049000001D1601CF2E7FEF7FDFB0646A860A8682F
:1049100008B90020EAE7204601F006FB8046414640
:10492000304600F0B7FD074601F0FEFA04460CB928
:104930000020DBE717E0FEF7E5FB071E00D1D5E717
:1049400037607E603E46601C01F0EEFA81464946C3
:10495000304600F09FFD804601F0E6FA04460CB9AF
:104960000020C3E700BF20782C28E4D020785D2801
:1049700001D1601CBAE7024804600020B6E70000DD
:104980002C000020014600220878302806DB087839
:10499000392803DC08783038024415E008784128CB
:1049A00006DB0878462803DC0878373802440BE039
:1049B0000878612806DB0878662803DC0878573811
:1049C000024401E0002070471201491C0878302899
:1049D00006DB0878392803DC08783038024415E013
:1049E0000878412806DB0878462803DC0878373841
:1049F00002440BE00878612806DB0878662803DCAF
:104A000008785738024401E00020DCE71201491C15
:104A10000878302806DB0878392803DC0878303835
:104A2000024415E00878412806DB0878462803DCB4
:104A30000878373802440BE00878612806DB0878EC
:104A4000662803DC08785738024401E00020BAE702
:104A50001201491C0878302806DB0878392803DC65
:104A600008783038024415E00878412806DB0878D9
:104A7000462803DC0878373802440BE008786128C0
:104A800006DB0878662803DC08785738024401E022
:104A9000002098E7104696E72DE9F04F9DB00020E2
:104AA0001C909A48FBF7FAFD0546294698A0FBF7AB
:104AB00027FC9648FEF736FB8346BBF1000F7DD0FE
:104AC00098A0FBF71DFCA0A15846FEF70BFB04467F
:104AD000E068052873D19EA0FBF712FC0021204658
:104AE000FEF7F0FA8146D9F80C00062868D19DA09F
:104AF000FBF706FCA2A14846FEF7F4FA4069A64976
:104B00000860A6A14846FEF7EDFA4069A249486050
:104B1000A8A14846FEF7E6FA40699F498860A9A126
:104B20004846FEF7DFFA40699B49C860A9A148469C
:104B3000FEF7D8FA406998490861A9A14846FEF7EE
:104B4000D1FA406994494861A8A14846FEF7CAFADB
:104B5000406991490862A8A14846FEF7C3FA406936
:104B60008D494862A7A0FBF7CBFB8B4842680168E0
:104B7000ADA0FBF7C5FB8848C2688168B2A0FBF70F
:104B8000BFFB854842690169B7A0FBF7B9FB8248C2
:104B9000426A016ABCA0FBF7B3FB7F48C269816926
:104BA000C1A0FBF7ADFBC8A14846FEF79BFA8246C1
:104BB000DAF80C0006285AD171A102E096E080E0F4
:104BC0007DE05046FEF78EFA4069C449086073A143
:104BD0005046FEF787FA4069C049486075A15046C3
:104BE000FEF780FA4069BD49886076A15046FEF71D
:104BF00079FA4069B949C86076A15046FEF772FA61
:104C00004069B649086176A15046FEF76BFA4069E3
:104C1000B249486175A15046FEF764FA4069AF4950
:104C2000086275A15046FEF75DFA4069AB494862DB
:104C3000ABA0FBF765FBB5A0FBF762FBA74842689A
:104C40000168BBA0FBF75CFBA448C2688168BFA0F9
:104C5000FBF756FBA148426A016AC3A0FBF750FB71
:104C60009E4842690169C7A0FBF74AFB03E00120A7
:104C70001DB0BDE8F08FCBA14846FEF733FA002205
:104C8000CB4BD0E90671384601F05AFB054601F0DE
:104C90001BFD1B901B9800F5E1401B901BA8FBF728
:104CA00023FE1A90C3A214213B4828301A9BFBF71D
:104CB00041FE39492831C2A0FBF722FB03E0012065
:104CC000D6E70120D4E7C1A0FBF71AFB3C228349B9
:104CD0000BA8FBF74DFD2C222F4910316846FBF73E
:104CE00047FD2D480FC8FEF79FFC08E0FEF7F4F9DA
:104CF00005462946BAA0FBF703FB0120B8E7584652
:104D0000FEF7B4F91C98C0B2B2E70000DE00002044
:104D1000BDD3CAD5B5BDB5C4CAFDBEDD3A25640D47
:104D20000D0A00004A534F4E20666F726D61742069
:104D30006F6B2C20737461727420706172736521C3
:104D400021210D0A00000000726573756C747300F8
:104D5000726573756C742069732061727261790D6C
:104D60000A000000726573756C745F6172725B306B
:104D70005D206973206F626A6563740D0A0000002C
:104D800063757272656E74436F6E6669726D656489
:104D9000436F756E740000003800002063757272F6
:104DA000656E74436F6E6669726D6564496E637299
:104DB00000000000636F6E6669726D6564436F7515
:104DC0006E740000636F6E6669726D6564496E6330
:104DD000720000006375726564436F756E74000045
:104DE0006375726564496E63720000006465616496
:104DF000436F756E7400000064656164496E637290
:104E0000000000002D2D2D2D2D2D2D2D2D2D2D2D86
:104E1000B9FAC4DAD2DFC7E92D2D2D2D2D2D2D2D78
:104E20002D2D2D2D2D0D0A00CFD6B4E6C8B7D5EF08
:104E30003A2020202535642C20BDCFD7F2C8D53AA2
:104E40002533640D0A000000C0DBBCC6C8B7D5EF2F
:104E50003A2020202535642C20BDCFD7F2C8D53A82
:104E60002533640D0A000000C0DBBCC6D6CED3FAE1
:104E70003A2020202535642C20BDCFD7F2C8D53A62
:104E80002533640D0A000000C0DBBCC6CBC0CDF6E4
:104E90003A2020202535642C20BDCFD7F2C8D53A42
:104EA0002533640D0A000000CFD6B4E6CEDED6A2CC
:104EB000D7B43A202535642C20BDCFD7F2C8D53AD7
:104EC0002533640D0A0D0A00676C6F62616C5374C0
:104ED00061746973746963730000000074000020DA
:104EE0000D0A2A2A2A2A2A2A2A2A2A2A676C6F6263
:104EF000616C206E636F7620646174612A2A2A2AAD
:104F00002A2A2A2A2A2A0D0A000000002D2D2D2DDA
:104F10002D2D2D2D2D2D2D2DC8ABC7F2D2DFC7E99C
:104F20002D2D2D2D2D2D2D2D2D2D2D2D2D0D0A0021
:104F3000CFD6B4E6C8B7D5EF3A202538642C20BDCB
:104F4000CFD7F2C8D53A2535640D0A00C0DBBCC600
:104F5000C8B7D5EF3A202538642C20BDCFD7F2C88A
:104F6000D53A2535640D0A00C0DBBCC6CBC0CDF6F2
:104F70003A202538642C20BDCFD7F2C8D53A253544
:104F8000640D0A00C0DBBCC6D6CED3FA3A20253861
:104F9000642C20BDCFD7F2C8D53A2535640D0A0D53
:104FA0000A00000075706461746554696D650000E5
:104FB00000408F40256D2D25642025483A254D0061
:104FC000B8FCD0C2D3DA3A25730D0A000D0A70611D
:104FD00072736520636F6D706C657465200D0A00D7
:104FE0004A534F4E20666F726D6174206572726F06
:104FF000723A25730D0A00002DE9F04F8BB08346FD
:105000008A460020044605460026674F0021884650
:1050100089460990012008909AF800002D2802D1B5
:10502000624F0AF1010A9AF80000302801D10AF112
:10503000010A9AF80000312822DB9AF8000039288A
:105040001EDC00BF1AF8011BA1F1300001F069FB62
:105050000022574BCDE906012046294601F0B4FB5A
:10506000CDE90401DDE9062301F0AEF804460D4662
:105070009AF80000302803DB9AF800003928E1DDB7
:105080009AF800002E2830D19AF8010030282CDB45
:105090009AF80100392828DC0AF1010A00BF1AF841
:1050A000011BA1F1300001F03CFB0022404BCDE997
:1050B00006012046294601F087FBCDE90401DDE920
:1050C000062301F081F804460D460022364B404687
:1050D000494601F09FFD804689469AF80000302835
:1050E00003DB9AF800003928D9DD9AF8000065281A
:1050F00003D09AF80000452823D10AF1010A9AF852
:1051000000002B2802D10AF1010A08E09AF80000F9
:105110002D2804D14FF0FF3008900AF1010A08E071
:105120001AF8010B3038099901EB810100EB4100BD
:1051300009909AF80000302803DB9AF8000039281B
:10514000EEDDDDE9082101FB02F001F0EAFA42465A
:105150004B46CDE9000101F037F802460B46CDE998
:1051600002010020124900F0F3F922462B46CDE956
:1051700006013046394601F027FBCDE90401DDE99F
:10518000062301F021FB04460D46CBE906452046E7
:10519000294601F069FACBF814000320CBF80C0083
:1051A00050460BB0BDE8F08F0000F03F0000F0BFAC
:1051B000000024402DE9F04706460C4620787B2865
:1051C00004D0404804600020BDE8F0870620F0606D
:1051D000601C00F0A9FE044620787D2801D1601CE7
:1051E000F2E7FDF78FFF0546B060B06808B9002010
:1051F000EAE7204600F098FE80464146284600F047
:1052000063F8074600F090FE04460CB90020DBE787
:10521000286928620020286120783A2803D029488C
:1052200004600020D0E7601C00F07EFE804641460E
:10523000284600F02FF9074600F076FE04460CB928
:105240000020C1E731E0FDF75DFF071E00D1BBE79D
:105250002F607D603D46601C00F066FE8146494639
:10526000284600F031F8804600F05EFE04460CB996
:105270000020A9E7286928620020286120783A28C0
:1052800003D01048046000209EE7601C00F04CFE34
:1052900081464946284600F0FDF8804600F044FE6D
:1052A00004460CB900208FE700BF20782C28CAD014
:1052B00020787D2801D1601C86E702480460002028
:1052C00082E700002C0000202DE9F05F834688462D
:1052D00008F10104002798F80000222805D06A4848
:1052E000C0F800800020BDE8F09F04E014F8011B26
:1052F0005C2900D1641C2078222804D0207810B1C9
:10530000781C071EF2D1781C6049096888478146DD
:10531000B9F1000F01D10020E5E708F101044D4685
:105320009EE020785C2804D014F8010B05F8010BEE
:1053300096E0641C2078722818D006DC622809D018
:1053400066280BD06E287DD10CE0742812D0752809
:10535000F9D113E0082005F8010B7FE00C2005F8D7
:10536000010B7BE00A2005F8010B77E00D2005F822
:10537000010B73E0092005F8010B6FE0601CFFF7DB
:1053800001FB0646241DB6F55C4F02D3B6F5604F0F
:1053900000D306B962E0B6F5584F1CD3B6F55C4FA2
:1053A00019D260785C2802D1A078752800D055E029
:1053B000E01CFFF7E7FA8246A41DBAF55C4F02D362
:1053C000BAF5604F00D349E0C6F30901504661F3D6
:1053D0009F2000F580360427802E01D2012708E0A7
:1053E000B6F5006F01D2022703E0B6F5803F00D288
:1053F00003273D44012F20D0022F15D0032F0AD0C0
:10540000042F24D106F0BF0040F08001681E05463D
:105410000170B60900BF06F0BF0040F08001681EB1
:1054200005460170B60900BF06F0BF0040F08001DC
:10543000681E05460170B60900BF1548C05D3043BF
:10544000C1B200E006E0681E0546017000BF00BF63
:105450003D4403E0207805F8010B00BF00BF641C49
:105460002078222803D0207800287FF45AAF00202B
:1054700028702078222800D1641CCBF810900420DA
:10548000CBF80C0020462EE72C0000203000002036
:10549000B475000870B505460C460CB9002070BD07
:1054A000042224A12046FBF718F918B90220E8606D
:1054B000201DF4E7052221A12046FBF70EF918B9BB
:1054C0000020E860601DEAE704221EA12046FBF7E9
:1054D00004F920B90120E8606861201DDFE7207829
:1054E000222804D121462846FFF7EEFED7E7207890
:1054F0002D2805D02078302807DB2078392804DCD7
:1055000021462846FFF778FDC9E720785B2804D1BB
:1055100021462846FFF7E0F9C1E720787B2804D12F
:1055200021462846FFF746FEB9E7084804600020F8
:10553000B5E700006E756C6C0000000066616C736E
:105540006500000074727565000000002C000020EA
:105550002DE9F04D1D460C4698B0174621F000414C
:1055600023F00043002814BF4FF0010C4FF0000C53
:105570000CEB440CFE4A0CEB02064FEA620C66454B
:105580002BD33E0018BF012606EB45061644F94A08
:10559000964222D3F84A53EA070C02D0944205D12E
:1055A00048B918B000201146BDE8F08D002808BFAA
:1055B0004FF0000C01D04FF0010C0CEB440212F53F
:1055C000001F0AD8002F14BF4FF0010C4FF0000C41
:1055D0000CEB450212F5001F07D918B03A462B46CE
:1055E0002146BDE8F04DFDF726BB0022DFF88CA375
:1055F000002CB8BF534526DADFF884C36345A8BF43
:10560000022220DADFF870C39C451CDCDFF874C38B
:105610000CEB235CBCF1140F08DDCCF1340627FA47
:1056200006FC0CFA06F6BE420DD108E05FB9CCF1DB
:10563000140623FA06FC0CFA06F69E4203D10CF07F
:105640000102C2F1020251EA000C19D1002D17DA51
:10565000002C18BF022A01D0012A07D00220FBF734
:105660000EFB18B0BDE8F04DFDF7DABA0220FBF7EB
:1056700006FBFDF7D5FA18B081F00041BDE8F08DCA
:10568000B7F1000C6CD1534525D104F1804212F5DD
:10569000801201BF00280020B74918B008BFBDE83C
:1056A000F08DB548884207DC002DA1BF6046294631
:1056B00018B0BDE8F08D07E0281E05DA80F0004143
:1056C00018B06046BDE8F08DAF497944D1E90001DA
:1056D00018B0BDE8F08DDFF8A0C2634525D1002DDC
:1056E0001FDA19B1514512D1D8B909E0002840F0AC
:1056F000EC82A24A214618B062F31E01BDE8F08D8B
:105700000020214618B060F31E01BDE8F08D08DAD4
:1057100018B02346BDE8F04D02460020614600F077
:105720000FBE18B02146BDE8F08D514518DAB5F12D
:10573000804F0DD0A5F1005CBCF1FF5C10D1B4F13D
:10574000000C0DDB18B06146BDE8F04D00F0F5BB74
:10575000234618B00246BDE8F04D194601F034B8B2
:10576000060024F0004C3BD1D9B1514533D1002C77
:1057700006DD002DA1BF0020514618B0BDE8F08D18
:10578000002C01DD002D1BDB002C13DA002D11DBBA
:10579000012A4FF0000014BF78497C4918B0BDE8D9
:1057A000F08D022A18BF002C0AD0012A08D1002C43
:1057B00006DA0AE0002CB8BF002D11DA012A04D065
:1057C000002018B00146BDE8F08D18B000204FF061
:1057D0000041BDE8F08DA1F14050B0F17F601AD0DA
:1057E000012000EBE47050EA020421D0624C521E0A
:1057F0004FF0000B104304BF4FF0000B644C6548A2
:1058000083427CDD644A654893421FDD884217DB92
:10581000002D25DB37E0002C00DA4AB1022A0CBF4C
:1058200001204FF0FF3018B0BDE8F04D00F079BF17
:105830000120FBF724FA18B0BDE8F04DFDF7FDB9E3
:105840004D4A8A4202DC002D0ADC1CE0814202DA69
:10585000002D18DA04E0484B994220DD002D12DDBE
:105860000220FBF70CFAFDF7EEF905460E46002282
:1058700053465846214600F0A7FF18B066F31E01B4
:105880002846BDE8F08D0220FBF7F9F9FDF7E2F9B3
:105890000A46214618B062F31E01BDE8F08D0022D1
:1058A0003046614601F0B6F980460E466FF00102BF
:1058B00001F0D0FA4FF05532394B01F0B9F84246B9
:1058C000334600F081FF0022364B01F0B1F88246EA
:1058D0004246334604911046194600F075FF524681
:1058E000049B00F071FF8A4600904FF0C0422E4B9F
:1058F0004046314600F068FF2C4A2B4B00E027E081
:10590000CDE906015146009800F05EFF8246019104
:10591000274A284B4046314600F056FF5246019B2D
:1059200001F078F982460B4602460591DDE9060151
:1059300000F04AFCDDE9062300268846304601F0E7
:1059400069F95246059B01F073F8024600F07EB9F2
:105950000020B1F5801F07DA35223046614601F09C
:1059600079FA06466FF0340000EB215024E0000085
:10597000FFFF1F00FFFF0F000000F03F0000F07F5F
:105980000000404301FCFFFFF21F00000000F0FF99
:105990000000F0BF0000E0410000F043FFFFEF3FD8
:1059A0005555D53F0000E03F4715F73FFE822B6578
:1059B00044DF5DF80BAE543EA0F2FF300190C1F31E
:1059C000130040F07F6141F040510291FE4988424E
:1059D000D8BF002004DDFD498142C8BF012001DDA0
:1059E0000D9008E000200D900198401C0190029855
:1059F000A0F5801002900299F54878440B910D991A
:105A000000EBC100D0E900230F9330460A920B99B6
:105A100001F000F9CDE90601DDE90A2130460F9BCE
:105A200000F0D2FB02460B460020EA4900F088FC59
:105A3000059102460B460090DDE9060100F0C4FE28
:105A40001490E5488A464FF00008784402990068AF
:105A500012904FF0005040EA61010D980F9B01EB4E
:105A6000804000F5002109910A9A129801F0D2F8BD
:105A700032460B9B00F0DCFF4246534600F0A4FE8A
:105A80000646029140465146099B129A00F09CFE40
:105A9000DDE9062300F0CCFF3246029B01F0BAF8A4
:105AA000059B009A00F090FE0091149A04905346D2
:105AB0001046194600F088FE06460246C7480B46C7
:105AC000029106217844FDF756F8CDE90510029BB6
:105AD00032461046194600F077FEDDE9053200F047
